:020000040800F2
:10000000A806002029020008571100087B100008EC
:10001000551100081F0400086912000800000000C4
:10002000000000000000000000000000BF110008F8
:10003000210400080000000059110008C111000847
:10004000430200084302000843020008430200087C
:10005000430200084302000843020008430200086C
:10006000430200084302000843020008430200085C
:10007000430200084302000843020008430200084C
:10008000430200084302000843020008430200083C
:10009000430200084302000843020008430200082C
:1000A000430200084302000843020008430200081C
:1000B000430200084302000843020008430200080C
:1000C00043020008430200084302000843020008FC
:1000D00043020008430200084302000843020008EC
:1000E00043020008430200084302000843020008DC
:1000F00043020008430200084302000843020008CC
:1001000043020008430200084302000843020008BB
:1001100043020008430200084302000843020008AB
:10012000430200084302000843020008430200089B
:10013000430200084302000843020008430200088B
:10014000430200084302000843020008430200087B
:10015000430200084302000843020008430200086B
:10016000430200084302000843020008430200085B
:100170004302000843020008430200080000000098
:10018000430200084302000800F002F800F03CF8C7
:100190000AA090E8000C82448344AAF10107DA45E2
:1001A00001D100F031F8AFF2090EBAE80F0013F0F8
:1001B000010F18BFFB1A43F0010318476C1300002E
:1001C0008C130000103A24BF78C878C1FAD85207BF
:1001D00024BF30C830C144BF04680C6070470000C1
:1001E0000023002400250026103A28BF78C1FBD840
:1001F000520728BF30C148BF0B6070471FB501F0E0
:100200007DF91FBD10B510BD00F0CFF81146FFF706
:10021000F5FF01F0AFF800F0EDF803B4FFF7F2FFDF
:1002200003BC00F0F5F80000094880470948004782
:10023000FEE7FEE7FEE7FEE7FEE7FEE7FEE7FEE796
:10024000FEE7FEE704480549054A064B70470000F3
:100250005912000889010008A8000020A806002003
:10026000A8020020A802002053EA020C00F06980D6
:100270002DE9F04B4FF00006002B1FBFB3FA83F5BA
:1002800003FA05F424FA05F65E4012BF1643B2FAEB
:1002900082F502FA05F4C5F120051EBF22FA05FC1D
:1002A00044EA0C04203556EA044C4FEA144418BFC3
:1002B000641C4FF000084FF00009904271EB030CF2
:1002C00039D3002919BFB1FA81F701FA07F6B0FA5C
:1002D00080F700FA07F6C7F120071EBF20FA07FCD7
:1002E00046EA0C062037B6FBF4FCA7EB0507103FE7
:1002F00007F01F0BCBF120060CFA0BFB2CFA06F6CD
:1003000044BFB3460026202FA4BF5E464FF0000B2B
:100310005BEA060C08BF4FF0010B19EB0B09ABFBB6
:10032000027C48EB0608C01B06FB02CC0BFB03CC8F
:1003300071EB0C01C1E70B46024641464846BDE859
:10034000F08B13B54FF000004FF00001AFF30080C9
:10035000BDE81C4070474FF0000200B513469446BC
:100360009646203922BFA0E80C50A0E80C50B1F10D
:100370002001BFF4F7AF090728BFA0E80C5048BF21
:100380000CC05DF804EB890028BF40F8042B08BFBF
:10039000704748BF20F8022B11F0804F18BF00F8BB
:1003A000012B7047704770477047754600F02CF876
:1003B000AE4605006946534620F00700854618B052
:1003C00020B5FFF73FFFBDE820404FF000064FF09B
:1003D00000074FF000084FF0000B21F00701AC467A
:1003E000ACE8C009ACE8C009ACE8C009ACE8C00999
:1003F0008D46704710B50446AFF300802046BDE837
:100400001040FFF70ABF0000004870474800002076
:1004100001491820ABBEFEE7260002007047FEE748
:10042000704772B6FEE7000070B5044600F010F9A0
:100430000546601C02D004480078044400F008F926
:10044000401BA042FAD370BD040000202DE9F84FF4
:10045000DFF8BCA1002201250AF1040B03264FF0AE
:100460000F090BF1040E00BF0B6805FA02F42340DC
:10047000A34270D10F7907F00307012F01D0022F9B
:1004800016D187684FEA420806FA08FC27EA0C07EB
:10049000D1F80CC00CFA08FC4CEA070CC0F808C0F4
:1004A0004768A7430C79C4F3001494403C4344606C
:1004B0000C79E443A4070AD0C4684FEA420C06FA58
:1004C0000CF7BC438F6807FA0CF72743C7600C7919
:1004D00004F00304022C12D1D40800EB840CDCF8E5
:1004E00020405707FF0E09FA07F824EA0804D1F85C
:1004F000108008FA07F848EA0408CCF8208004685D
:100500004FEA420C06FA0CF7BC430F7907F00307D9
:1005100007FA0CF7274307604C6814F4403F70D08B
:100520003C4C276847F480472760246822F0030783
:1005300004F480440094384C07EB040CDCF80848C1
:1005400097074FEA177809FA08F7BC43334FB842C8
:1005500002D1002724E054E0314FB84201D10127F5
:100560001EE0304FB84201D1022719E02E4FB842A9
:1005700001D1032714E02D4FB84201D104270FE029
:100580002B4FB84201D105270AE02A4FB84201D1CA
:10059000062705E0284FB84201D1072700E00827C9
:1005A00007FA08F72743CCF80878DAF800405746EE
:1005B000D1F804C09C435FEACC3C00D51C433C60AE
:1005C000DBF800405F46D1F804C09C435FEA8C3CF6
:1005D00000D51C433C60DEF800407746D1F804C0EB
:1005E0009C435FEACC2C00D51C433C60084F0C3781
:1005F0003C68D1F804C09C435FEA8C2C00D51C43B6
:100600003C60521C102AFFF42FAFBDE8F88F0000A9
:10061000003C0140443802400030014000000240EC
:100620000004024000080240000C0240001002409A
:100630000014024000180240001C024000690840FB
:1006400000D0012070470AB1816170470904FBE7BF
:10065000014880687047000004000020024881685B
:100660000278114481607047040000200B4810B5E7
:10067000016841F400710160016841F4806101602A
:10068000016841F480710160032000F061F80F20DF
:1006900000F006F800F024F8002010BD003C0240F5
:1006A00070B50D4D04464FF47A712878B1FBF0F027
:1006B0000A490968B1FBF0F000F0CBFC48B9102CF6
:1006C00007D200222146501E00F022F800206C6064
:1006D00070BD012070BD000004000020100000204B
:1006E0000A4808B5016841F480410160006800F4DF
:1006F000804000900548001F016841F08051016072
:10070000006800F08050009008BD000044380240AE
:10071000F0B40E4B1B680C46C3F30223C3F107056C
:10072000042D00D90425191D072901D2002300E05A
:10073000DB1E012606FA05F1491E214099409E4024
:10074000761E16403143F0BC00F08FBD0CED00E08A
:10075000064900F0070208684FF6FF03184040EA18
:100760000220034A10430860704700000CED00E0CF
:100770000000FA052DE9F843054600684FF001092D
:10078000C1074FF0000601D1400727D5DFF80C81E3
:10079000C8F86860FFF75CFF0746414C05E000BF02
:1007A000FFF756FFC01B022857D820680001F7D476
:1007B00068688101287A41EA00703949843108600B
:1007C000C8F86890FFF744FF074604E0FFF740FFD2
:1007D000C01B022841D820680001F7D5287880077F
:1007E00052D52F484030016841F0805101600068C7
:1007F0002C4C00F080500090206840F48070206005
:10080000FFF726FF074604E0FFF722FFC01B022880
:1008100023D82068C005F7D5214C7034206810F427
:10082000407020D0A98901F4407181421BD020681A
:100830001D4920F44070C1F800900E6020602068CF
:10084000C00710D0FFF704FF064641F2883707E0E3
:10085000FFF7FEFE801BB84202D90320BDE8F883F3
:1008600020688007F4D5E9680D48C1F301220830FB
:10087000032A0BD0016821F4F81101602068A989CE
:10088000C1F30B01084320600020E7E70268074B33
:1008900022F4F81219400A430260EFE700004742D1
:1008A0000038024000700040400E4742FFFCFF0F3E
:1008B0002DE9F0470E46050065D0DFF81481D8F821
:1008C0000000F7B200F00700B04207D288F80070CD
:1008D000D8F8000000F00700B04254D128683D4C21
:1008E000810712D5400703D5206840F4E05020600E
:1008F0002878000703D5206840F460402060206815
:10090000A96820F0F000084320602878C0072DD0A7
:10091000304968680839012812D0022813D003280A
:1009200011D00968890700292DDA216821F0030117
:1009300001432160FFF78CFE814641F2883A0EE0C8
:1009400009688903EFE709688901ECE7FFF780FE92
:10095000A0EB0901514502D90320BDE8F0872068CA
:10096000696800F00C00B0EB810FEFD1D8F80010EF
:10097000404601F00701B14207D90770006800F056
:100980000700B04201D00120E7E72878400705D5ED
:100990002068E96820F4E0500843206028780007C8
:1009A00006D52068296920F4604040EAC100206033
:1009B00000F018F82168084AC1F30311515CC840DF
:1009C0000649086006480068FFF76AFE0020C4E791
:1009D000003C0240083802401715000810000020B3
:1009E00008000020154810B5006810F00C021448EB
:1009F00013D04110042A0FD0082A0ED10F4C241F07
:100A00002268236802F03F025B0207D52068C0F32A
:100A10008810A0FB010106E0084610BD2168C1F363
:100A20008811A1FB00010023FFF71EFC2168C1F320
:100A30000141491C4900B0FBF1F010BD08380240EB
:100A40000024F4002DE9F84F04006ED02078DFF880
:100A50004C93C007A9F104054AD009F104000168CC
:100A6000C1F38101012908D00068C0F38100022888
:100A70000AD1D9F80000400206D52868800337D58E
:100A800060680028E1D033E06068B0F5803F10D0A6
:100A9000B0F5A02F286810D020F480302860286896
:100AA00020F4802028606068A8B1FFF7D1FD0646D9
:100AB0000DE0286840F48030F4E740F4802028609E
:100AC000F7E700BFFFF7C4FD801B642873D82868D0
:100AD0008003F7D50CE0FFF7BBFD064605E000BF3D
:100AE000FFF7B6FD801B6428F0D828688003F7D490
:100AF0002078DFF8AC8280074FF0000A3ED5A74887
:100B0000001D016811F00C0F08D00068C0F38100CF
:100B100002280BD1D9F80000400207D428688007CA
:100B200016D5E068012800D112E033E1E068B8B1E1
:100B30000120C8F80000FFF78BFD064605E000BF66
:100B4000FFF786FD801B0228C0D828688007F7D5EC
:100B50002868216920F0F80040EAC10028600DE013
:100B6000C8F800A0FFF774FD064604E0FFF770FD2B
:100B7000801B02281FD828688007F7D42078000738
:100B800022D5864F87486169703771B101210160B4
:100B9000FFF75EFD064604E0FFF75AFD801B0228C2
:100BA00009D838688007F7D50EE0C0F800A0FFF735
:100BB0004FFD064605E082E0FFF74AFD801B022854
:100BC0007DD838688007F7D42078400768D5DFF8EB
:100BD000CCB100270BF13C0BDBF80000C0000BD4BC
:100BE000DBF8001041F08051CBF80010DBF800007A
:100BF000012700F0805000906B4E3068C00510D483
:100C0000306840F480703060FFF722FD009005E00E
:100C1000FFF71EFD0099401A022850D83068C00521
:100C2000F6D55E4EA0686C3601280FD005283068D6
:100C300010D020F001003060306820F004003060F7
:100C4000A068B8B1FFF704FD00900FE0306840F0F5
:100C50000100F4E740F004003060F7E7FFF7F8FC2C
:100C60000099411A41F28830814266D83068800785
:100C7000F4D50EE0FFF7ECFC009007E0FFF7E8FC8E
:100C80000099411A41F28830814256D83068800775
:100C9000F4D42FB1DBF8001021F08051CBF8001014
:100CA000A069C8B33D49091D0968C1F38101022942
:100CB0004AD00228504607D0C8F8600000E03CE067
:100CC000FFF7C6FC04463BE04746C8F86000FFF764
:100CD000BFFC064605E000BFFFF7BAFC801B0228F8
:100CE0002BD828688001F7D4D4E907010843A16A0A
:100CF0002E4A490802EB0141626A41EA8211084327
:100D000094F82C1040EA0161C9F8001001203866FF
:100D1000FFF79EFC044606E03EE000BFFFF798FCAC
:100D2000001B022809D828688001F7D534E000BFED
:100D3000FFF78EFC001B022802D90320BDE8F88FC4
:100D400028688001F4D427E00128F7D0D9F8000002
:100D5000E26900F4800191421CD1226A00F03F0157
:100D6000914217D147F6C071626A0140B1EB821F10
:100D700010D1A26A4FF0FF3300F4403103EB52026E
:100D8000B1EB024F06D194F82C1000F07060B0EB7C
:100D9000016F01D00120D1E70020CFE704380240E5
:100DA00000004742800E4742007000400000FFFFF5
:100DB00010B500680B4641680D480140080CD8701A
:100DC000C1F304245C7001F03F049C70C1F3423114
:100DD000197052B900F0C1F9D870587800F0BDF917
:100DE0005870987800F0B9F99870002010BD000094
:100DF0003FFFFF0010B50B460168896A5960016822
:100E00000969C1F30E019960006801680E4801404C
:100E1000C1F305401870C1F306245C7001F07F0433
:100E20009C70402404EA1141D97052B900F095F940
:100E30001870587800F091F95870987800F08DF992
:100E40009870002010BD00007F7F7F0070B5040007
:100E500002D0607F10B106E0012070BD0020207735
:100E6000204600F049F8022060772168CA204862D5
:100E7000216853204862204600F084F9FF250426AB
:100E800018BB206881681B4A11408160216888680E
:100E900062681043D4E904231A4310438860216830
:100EA000E068086120680169228941EA0241016124
:100EB0002068C16821F08001C160206880688006D8
:100EC00007D4204600F0AAF818B12068456266777A
:100ED000C2E72068016C21F4802101642068016C64
:100EE000A2691143016420684562012060770020F7
:100EF00070BD0000BFFF8FFF1FB500210091019161
:100F0000029103910068084988420CD102200090A8
:100F1000C00103906846FFF72DFC08B1FFF781FA86
:100F20000249012008601FBD002800403C0E4742D6
:100F30002DE9F0470446007F0D46012827D04FF0E9
:100F4000010A84F81CA002206077206800268068CF
:100F50004FEA4060F2B1002800DBEE70A8782978F3
:100F600040EA01476878E978000240EA0140074317
:100F70002168CA204862216853204862204600F058
:100F800001F94FF0FF084FF00409A0BB16E0022062
:100F9000BDE8F087002800DBEE70287800F0E6F866
:100FA0000204687800F0E2F842EA0022A87800F033
:100FB000DDF80243E87842EA0047D9E716480740DF
:100FC000206807602068816821F480218160D5E96C
:100FD0000301084321688A68104388602068C1685B
:100FE00021F08001C1602068806880060BD4204613
:100FF00000F014F838B12168C1F8248084F81D90FD
:1010000026770120C4E72168C1F8248084F81DA058
:1010100026770020BCE700007F7F7F0070B5044684
:101020000068C16821F0A001C160FFF711FB05460F
:101030004FF47A7607E000BFFFF70AFB401BB0428F
:1010400001D9032070BD2068C0688006F4D5002057
:1010500070BD10B5401EB0F1807F01D3012010BDDE
:101060004FF0E02460610F21601700F0FEF80020CF
:10107000A06107202061002010BDFEE770B586B09A
:1010800014216846FFF767F921480024016841F000
:1010900010010160016801F010010591016841F043
:1010A00004010160016801F004010591016841F04B
:1010B00080010160016801F080010591016841F043
:1010C00001010160016801F001010591016841F031
:1010D0000201016000680F4E00F00200059000223E
:1010E000C0213046FFF7AFFA182001258DE8310006
:1010F00069460948FFF7AAF9C0200090112003941F
:10110000CDE9010569463046FFF7A0F906B070BD8C
:101110003038024000000240001002400B4810B579
:101120000021C16001611430094AC0E900217F2219
:101130008260FF22C0E9032141618161FFF786FEE1
:10114000002801D072B6FEE710BD00001400002098
:1011500000280040FEE7FEE77047010901EB81012E
:1011600000F00F0000EB4100C0B27047002102E028
:101170000A38C0B2491C0A28FAD2090740EA1160AD
:101180007047000070B504460068C168490614D471
:101190004FF0FF31C160FFF75BFA05464FF47A76F6
:1011A00007E000BFFFF754FA401BB04201D903200B
:1011B00070BD2068C0684006F4D5002070BD70473F
:1011C000FFF74CBA30B593B030216846FFF7C3F84B
:1011D00014210CA8FFF7BFF81D480025016841F055
:1011E00080510160006800F080501190194801683A
:1011F00041F4804101600068022400F480401190B5
:10120000052000904FF4803001900120029080056D
:10121000CDE9064008AA0420502182E813000B9073
:101220006846FFF70FFC08B172B6FEE70F20CDE964
:101230000C049020CDE90E0500210CA81095FFF7B5
:1012400037FB002801D072B6FEE713B030BD0000B6
:1012500040380240007000400248016841F47001CB
:101260000160704788ED00E0FEE70907090E0028DD
:1012700004DB00F1E02080F80014704700F00F005C
:1012800000F1E02080F8141D704700000122402189
:101290000148FFF7D8B900000000024000224021B9
:1012A0000148FFF7D0B9000000000240002805D037
:1012B0000221491C0529FCDB401EF9D170470000C2
:1012C000012280210148FFF7BEB900000000024062
:1012D000002280210148FFF7B6B90000000002405B
:1012E00010B5FFF7DBFF0520FFF7E0FFFFF7CEFFAC
:1012F0000220FFF7DBFFBDE81040FFF7CFBF10B5BE
:10130000FFF7C4FFFFF7DCFF0220FFF7CFFFBDE8C8
:101310001040FFF7DDBF10B5FFF7C0FF0220FFF759
:10132000C5FFFFF7D5FF0220FFF7C0FFFFF7AEFFB5
:101330000220FFF7BBFFBDE81040FFF7C1BF000070
:1013400070B504465FF00005FFF7A8FFE00702D084
:10135000FFF7B6FF01E0FFF7BBFF0320FFF7A6FF93
:101360006408FFF793FF0320FFF7A0FF6D1C082D13
:10137000EADB70BDFFF77AF9FFF724FFFFF77EFE87
:10138000FFF7CCFE00F078F8DFF8688000251A4CF3
:10139000072610274FF4FA791749002201F11400AB
:1013A000FFF728FD1448002214491430FFF700FD10
:1013B0002078642110FB01F061780844A17801F0E5
:1013C000010100F01DF86420FFF72EF808214046C7
:1013D000FFF734F90028DFD1267007496770A57040
:1013E000002201F11400FFF7A3FD4846FFF71CF8A7
:1013F000D2E700000010024014000020000000208E
:10140000F8B500221B4C0A234FEA0D0590FBF3F6BA
:1014100003FB1606022AA65DAE5406D129B19DF83B
:10142000026046F080068DF8026090FBF3F0521CDB
:10143000042AEBDBFFF763FF4020FFF781FFFFF794
:101440004FFFFFF768FFFFF75AFFC020FFF778FF55
:10145000FFF746FF5FF00004C4F10300285CFFF7CC
:101460006FFFFFF73DFF641C042CF5DBFFF753FF14
:10147000F8BD000006150008174810B5016886B0D1
:1014800041F004010160016801F004010591016867
:1014900041F0040101600068142100F0040005908F
:1014A0006846FEF758FF01200290112001900320AA
:1014B00003904020094C009069462046FEF7C6FF85
:1014C0008020009069462046FEF7C0FF082000F00B
:1014D00007F806B010BD000030380240000002409E
:1014E00010B50446FFF70BFF8734E0B2FFF728FF83
:1014F000FFF7F6FEBDE81040FFF70DBF4FF040705C
:10150000E1EE100A70473F065B4F666D7D077F6F07
:10151000777C395E79710000000000000000000156
:10152000020304060708090048150008000000200F
:1015300014000000C40100085C150008140000201D
:1015400094060000E0010008000000000100000017
:0C15500010000000000000000024F40067
:040000050800018965
:00000001FF
